{
  "_format": "hh-sol-artifact-1",
  "contractName": "CivicBlockchain",
  "sourceName": "contracts/CivicBlockchain.sol",
  "abi": [
    {
      "inputs": [],
      "stateMutability": "nonpayable",
      "type": "constructor"
    },
    {
      "anonymous": false,
      "inputs": [
        {
          "indexed": true,
          "internalType": "uint256",
          "name": "blockNumber",
          "type": "uint256"
        },
        {
          "indexed": false,
          "internalType": "bytes32",
          "name": "blockHash",
          "type": "bytes32"
        },
        {
          "indexed": false,
          "internalType": "address",
          "name": "miner",
          "type": "address"
        },
        {
          "indexed": false,
          "internalType": "uint256",
          "name": "transactionCount",
          "type": "uint256"
        }
      ],
      "name": "BlockMined",
      "type": "event"
    },
    {
      "anonymous": false,
      "inputs": [
        {
          "indexed": true,
          "internalType": "uint256",
          "name": "complaintId",
          "type": "uint256"
        },
        {
          "indexed": true,
          "internalType": "address",
          "name": "citizen",
          "type": "address"
        },
        {
          "indexed": false,
          "internalType": "bytes32",
          "name": "dataHash",
          "type": "bytes32"
        },
        {
          "indexed": false,
          "internalType": "uint256",
          "name": "blockNumber",
          "type": "uint256"
        }
      ],
      "name": "ComplaintFiled",
      "type": "event"
    },
    {
      "anonymous": false,
      "inputs": [
        {
          "indexed": true,
          "internalType": "uint256",
          "name": "complaintId",
          "type": "uint256"
        },
        {
          "indexed": true,
          "internalType": "address",
          "name": "responder",
          "type": "address"
        },
        {
          "indexed": false,
          "internalType": "bytes32",
          "name": "dataHash",
          "type": "bytes32"
        },
        {
          "indexed": false,
          "internalType": "uint256",
          "name": "blockNumber",
          "type": "uint256"
        }
      ],
      "name": "ResponseAdded",
      "type": "event"
    },
    {
      "anonymous": false,
      "inputs": [
        {
          "indexed": true,
          "internalType": "uint256",
          "name": "complaintId",
          "type": "uint256"
        },
        {
          "indexed": false,
          "internalType": "uint8",
          "name": "newStatus",
          "type": "uint8"
        },
        {
          "indexed": false,
          "internalType": "bytes32",
          "name": "dataHash",
          "type": "bytes32"
        },
        {
          "indexed": false,
          "internalType": "uint256",
          "name": "blockNumber",
          "type": "uint256"
        }
      ],
      "name": "StatusUpdated",
      "type": "event"
    },
    {
      "anonymous": false,
      "inputs": [
        {
          "indexed": true,
          "internalType": "uint256",
          "name": "complaintId",
          "type": "uint256"
        },
        {
          "indexed": true,
          "internalType": "address",
          "name": "verifier",
          "type": "address"
        },
        {
          "indexed": false,
          "internalType": "bool",
          "name": "isResolved",
          "type": "bool"
        },
        {
          "indexed": false,
          "internalType": "bytes32",
          "name": "dataHash",
          "type": "bytes32"
        },
        {
          "indexed": false,
          "internalType": "uint256",
          "name": "blockNumber",
          "type": "uint256"
        }
      ],
      "name": "VerificationAdded",
      "type": "event"
    },
    {
      "inputs": [],
      "name": "COMPLAINT_FILED",
      "outputs": [
        {
          "internalType": "uint8",
          "name": "",
          "type": "uint8"
        }
      ],
      "stateMutability": "view",
      "type": "function"
    },
    {
      "inputs": [],
      "name": "RESPONSE_ADDED",
      "outputs": [
        {
          "internalType": "uint8",
          "name": "",
          "type": "uint8"
        }
      ],
      "stateMutability": "view",
      "type": "function"
    },
    {
      "inputs": [],
      "name": "STATUS_IN_PROGRESS",
      "outputs": [
        {
          "internalType": "uint8",
          "name": "",
          "type": "uint8"
        }
      ],
      "stateMutability": "view",
      "type": "function"
    },
    {
      "inputs": [],
      "name": "STATUS_PENDING",
      "outputs": [
        {
          "internalType": "uint8",
          "name": "",
          "type": "uint8"
        }
      ],
      "stateMutability": "view",
      "type": "function"
    },
    {
      "inputs": [],
      "name": "STATUS_REJECTED",
      "outputs": [
        {
          "internalType": "uint8",
          "name": "",
          "type": "uint8"
        }
      ],
      "stateMutability": "view",
      "type": "function"
    },
    {
      "inputs": [],
      "name": "STATUS_RESOLVED",
      "outputs": [
        {
          "internalType": "uint8",
          "name": "",
          "type": "uint8"
        }
      ],
      "stateMutability": "view",
      "type": "function"
    },
    {
      "inputs": [],
      "name": "STATUS_UPDATE",
      "outputs": [
        {
          "internalType": "uint8",
          "name": "",
          "type": "uint8"
        }
      ],
      "stateMutability": "view",
      "type": "function"
    },
    {
      "inputs": [],
      "name": "VERIFICATION_ADDED",
      "outputs": [
        {
          "internalType": "uint8",
          "name": "",
          "type": "uint8"
        }
      ],
      "stateMutability": "view",
      "type": "function"
    },
    {
      "inputs": [
        {
          "internalType": "uint256",
          "name": "_complaintId",
          "type": "uint256"
        },
        {
          "internalType": "string",
          "name": "_responseText",
          "type": "string"
        }
      ],
      "name": "addResponse",
      "outputs": [],
      "stateMutability": "nonpayable",
      "type": "function"
    },
    {
      "inputs": [
        {
          "internalType": "uint256",
          "name": "_complaintId",
          "type": "uint256"
        },
        {
          "internalType": "bool",
          "name": "_isResolved",
          "type": "bool"
        }
      ],
      "name": "addVerification",
      "outputs": [],
      "stateMutability": "nonpayable",
      "type": "function"
    },
    {
      "inputs": [
        {
          "internalType": "uint256",
          "name": "",
          "type": "uint256"
        }
      ],
      "name": "blockchain",
      "outputs": [
        {
          "components": [
            {
              "internalType": "uint256",
              "name": "blockNumber",
              "type": "uint256"
            },
            {
              "internalType": "uint256",
              "name": "timestamp",
              "type": "uint256"
            },
            {
              "internalType": "bytes32",
              "name": "previousBlockHash",
              "type": "bytes32"
            },
            {
              "internalType": "bytes32",
              "name": "transactionsMerkleRoot",
              "type": "bytes32"
            },
            {
              "internalType": "address",
              "name": "miner",
              "type": "address"
            }
          ],
          "internalType": "struct CivicBlockchain.BlockHeader",
          "name": "header",
          "type": "tuple"
        }
      ],
      "stateMutability": "view",
      "type": "function"
    },
    {
      "inputs": [
        {
          "components": [
            {
              "components": [
                {
                  "internalType": "uint256",
                  "name": "blockNumber",
                  "type": "uint256"
                },
                {
                  "internalType": "uint256",
                  "name": "timestamp",
                  "type": "uint256"
                },
                {
                  "internalType": "bytes32",
                  "name": "previousBlockHash",
                  "type": "bytes32"
                },
                {
                  "internalType": "bytes32",
                  "name": "transactionsMerkleRoot",
                  "type": "bytes32"
                },
                {
                  "internalType": "address",
                  "name": "miner",
                  "type": "address"
                }
              ],
              "internalType": "struct CivicBlockchain.BlockHeader",
              "name": "header",
              "type": "tuple"
            },
            {
              "components": [
                {
                  "internalType": "uint8",
                  "name": "txType",
                  "type": "uint8"
                },
                {
                  "internalType": "address",
                  "name": "sender",
                  "type": "address"
                },
                {
                  "internalType": "bytes32",
                  "name": "dataHash",
                  "type": "bytes32"
                },
                {
                  "internalType": "uint256",
                  "name": "timestamp",
                  "type": "uint256"
                }
              ],
              "internalType": "struct CivicBlockchain.CivicTransaction[]",
              "name": "transactions",
              "type": "tuple[]"
            }
          ],
          "internalType": "struct CivicBlockchain.Block",
          "name": "_block",
          "type": "tuple"
        }
      ],
      "name": "calculateBlockHash",
      "outputs": [
        {
          "internalType": "bytes32",
          "name": "",
          "type": "bytes32"
        }
      ],
      "stateMutability": "pure",
      "type": "function"
    },
    {
      "inputs": [
        {
          "internalType": "uint256",
          "name": "",
          "type": "uint256"
        }
      ],
      "name": "complaints",
      "outputs": [
        {
          "internalType": "uint256",
          "name": "complaintId",
          "type": "uint256"
        },
        {
          "internalType": "address",
          "name": "citizen",
          "type": "address"
        },
        {
          "internalType": "string",
          "name": "description",
          "type": "string"
        },
        {
          "internalType": "string",
          "name": "locationName",
          "type": "string"
        },
        {
          "internalType": "int256",
          "name": "lat",
          "type": "int256"
        },
        {
          "internalType": "int256",
          "name": "lng",
          "type": "int256"
        },
        {
          "internalType": "string",
          "name": "mediaHash",
          "type": "string"
        },
        {
          "internalType": "uint256",
          "name": "timestamp",
          "type": "uint256"
        }
      ],
      "stateMutability": "view",
      "type": "function"
    },
    {
      "inputs": [
        {
          "internalType": "uint256",
          "name": "_complaintId",
          "type": "uint256"
        },
        {
          "internalType": "string",
          "name": "_description",
          "type": "string"
        },
        {
          "internalType": "string",
          "name": "_locationName",
          "type": "string"
        },
        {
          "internalType": "int256",
          "name": "_lat",
          "type": "int256"
        },
        {
          "internalType": "int256",
          "name": "_lng",
          "type": "int256"
        },
        {
          "internalType": "string",
          "name": "_mediaHash",
          "type": "string"
        }
      ],
      "name": "fileComplaint",
      "outputs": [],
      "stateMutability": "nonpayable",
      "type": "function"
    },
    {
      "inputs": [
        {
          "internalType": "uint256",
          "name": "_blockNumber",
          "type": "uint256"
        }
      ],
      "name": "getBlock",
      "outputs": [
        {
          "components": [
            {
              "internalType": "uint256",
              "name": "blockNumber",
              "type": "uint256"
            },
            {
              "internalType": "uint256",
              "name": "timestamp",
              "type": "uint256"
            },
            {
              "internalType": "bytes32",
              "name": "previousBlockHash",
              "type": "bytes32"
            },
            {
              "internalType": "bytes32",
              "name": "transactionsMerkleRoot",
              "type": "bytes32"
            },
            {
              "internalType": "address",
              "name": "miner",
              "type": "address"
            }
          ],
          "internalType": "struct CivicBlockchain.BlockHeader",
          "name": "",
          "type": "tuple"
        },
        {
          "components": [
            {
              "internalType": "uint8",
              "name": "txType",
              "type": "uint8"
            },
            {
              "internalType": "address",
              "name": "sender",
              "type": "address"
            },
            {
              "internalType": "bytes32",
              "name": "dataHash",
              "type": "bytes32"
            },
            {
              "internalType": "uint256",
              "name": "timestamp",
              "type": "uint256"
            }
          ],
          "internalType": "struct CivicBlockchain.CivicTransaction[]",
          "name": "",
          "type": "tuple[]"
        }
      ],
      "stateMutability": "view",
      "type": "function"
    },
    {
      "inputs": [],
      "name": "getBlockchainLength",
      "outputs": [
        {
          "internalType": "uint256",
          "name": "",
          "type": "uint256"
        }
      ],
      "stateMutability": "view",
      "type": "function"
    },
    {
      "inputs": [
        {
          "internalType": "uint256",
          "name": "_complaintId",
          "type": "uint256"
        }
      ],
      "name": "getCurrentStatus",
      "outputs": [
        {
          "internalType": "uint8",
          "name": "",
          "type": "uint8"
        }
      ],
      "stateMutability": "view",
      "type": "function"
    },
    {
      "inputs": [
        {
          "internalType": "uint256",
          "name": "_complaintId",
          "type": "uint256"
        }
      ],
      "name": "getResponses",
      "outputs": [
        {
          "components": [
            {
              "internalType": "uint256",
              "name": "complaintId",
              "type": "uint256"
            },
            {
              "internalType": "address",
              "name": "responder",
              "type": "address"
            },
            {
              "internalType": "string",
              "name": "responseText",
              "type": "string"
            },
            {
              "internalType": "uint256",
              "name": "timestamp",
              "type": "uint256"
            }
          ],
          "internalType": "struct CivicBlockchain.ResponseData[]",
          "name": "",
          "type": "tuple[]"
        }
      ],
      "stateMutability": "view",
      "type": "function"
    },
    {
      "inputs": [
        {
          "internalType": "uint256",
          "name": "_complaintId",
          "type": "uint256"
        }
      ],
      "name": "getVerifications",
      "outputs": [
        {
          "components": [
            {
              "internalType": "uint256",
              "name": "complaintId",
              "type": "uint256"
            },
            {
              "internalType": "address",
              "name": "verifier",
              "type": "address"
            },
            {
              "internalType": "bool",
              "name": "isResolved",
              "type": "bool"
            },
            {
              "internalType": "uint256",
              "name": "timestamp",
              "type": "uint256"
            }
          ],
          "internalType": "struct CivicBlockchain.VerificationData[]",
          "name": "",
          "type": "tuple[]"
        }
      ],
      "stateMutability": "view",
      "type": "function"
    },
    {
      "inputs": [
        {
          "internalType": "uint256",
          "name": "_complaintId",
          "type": "uint256"
        },
        {
          "internalType": "uint8",
          "name": "_newStatus",
          "type": "uint8"
        }
      ],
      "name": "updateStatus",
      "outputs": [],
      "stateMutability": "nonpayable",
      "type": "function"
    },
    {
      "inputs": [],
      "name": "verifyChainIntegrity",
      "outputs": [
        {
          "internalType": "bool",
          "name": "",
          "type": "bool"
        }
      ],
      "stateMutability": "view",
      "type": "function"
    }
  ],
  "bytecode": "0x608060405234801561001057600080fd5b506040805160a0808201835260008083524260208085019182528486018381526060808701858152336080808a0191825287546001810189558880528a517f290decd9548b62a8d60345a988386fc84ba6bc95484008f6362f93160ef3e563600690920291820181815598517f290decd9548b62a8d60345a988386fc84ba6bc95484008f6362f93160ef3e564830181905596517f290decd9548b62a8d60345a988386fc84ba6bc95484008f6362f93160ef3e565830181905594517f290decd9548b62a8d60345a988386fc84ba6bc95484008f6362f93160ef3e566830181905593517f290decd9548b62a8d60345a988386fc84ba6bc95484008f6362f93160ef3e567830180546001600160a01b0319166001600160a01b0390921691821790558d5160e081018f52808f0192835296870197909752918501939093529783015260c08201929092529485527f290decd9548b62a8d60345a988386fc84ba6bc95484008f6362f93160ef3e5680180548751818402810184019098528088529596929593947f550c15d59a80a1ae351b80766cce26e5621bf8695277749182506040eee374aa94610296949193889385820193929091899084015b8282101561022e5760008481526020908190206040805160808101825260038602909201805460ff8116845261010090046001600160a01b0316838501526001808201549284019290925260020154606083015290835290920191016101cd565b50505091525050518051602080830151604080850151606080870151608097880151845180880198909852878501959095528682019290925295850152931b6001600160601b03191660a08301528251808303609401815260b4909201909252805191012090565b6040805191825233602083015260009082015260600160405180910390a25050612012806102c56000396000f3fe608060405234801561001057600080fd5b50600436106101375760003560e01c806371ee2ce1116100b8578063a9a44b4b1161007c578063a9a44b4b14610277578063aa69cb71146101d5578063ac99dcdf146101cd578063b6b15ac91461028a578063c25b1eaf1461029d578063cdb446171461026f57600080fd5b806371ee2ce1146102035780637e69e912146102235780638364ad381461024a578063a0aa13c61461025c578063a81bda5f1461026f57600080fd5b80633a6c6604116100ff5780633a6c6604146101cd578063423d487c146101d55780636501b2a7146101dd57806367c16e121461019e57806367ce9b98146101f057600080fd5b806304c075691461013c5780630f584d461461016657806316d896961461018657806331d440511461019e5780633a1b3d31146101b8575b600080fd5b61014f61014a366004611683565b6102bd565b60405161015d92919061169c565b60405180910390f35b610179610174366004611683565b6104c5565b60405161015d9190611747565b61018e61056a565b604051901515815260200161015d565b6101a6600181565b60405160ff909116815260200161015d565b6101cb6101c63660046117bf565b6106e1565b005b6101a6600381565b6101a6600081565b6101cb6101eb366004611834565b6107e2565b6101cb6101fe3660046118ed565b610a7d565b610216610211366004611683565b610c1f565b60405161015d9190611968565b610236610231366004611683565b610d42565b60405161015d9897969594939291906119ff565b6000545b60405190815260200161015d565b6101a661026a366004611683565b610f26565b6101a6600281565b6101cb610285366004611a74565b61102f565b61024e610298366004611c53565b6111e8565b6102b06102ab366004611683565b61124e565b60405161015d9190611d16565b6040805160a08101825260008082526020820181905291810182905260608101829052608081019190915260005460609083106103385760405162461bcd60e51b8152602060048201526014602482015273109b1bd8dac8191bd95cc81b9bdd08195e1a5cdd60621b60448201526064015b60405180910390fd5b600080848154811061034c5761034c611d56565b906000526020600020906006020190506000816005018054905067ffffffffffffffff81111561037e5761037e611ac0565b6040519080825280602002602001820160405280156103d057816020015b60408051608081018252600080825260208083018290529282018190526060820152825260001990920191018161039c5790505b50905060005b6005830154811015610478578260050181815481106103f7576103f7611d56565b6000918252602091829020604080516080810182526003909302909101805460ff811684526001600160a01b0361010090910416938301939093526001830154908201526002909101546060820152825183908390811061045a5761045a611d56565b6020026020010181905250808061047090611d82565b9150506103d6565b506040805160a0810182528354815260018401546020820152600284015491810191909152600383015460608201526004909201546001600160a01b031660808301529094909350915050565b606060036000838152602001908152602001600020805480602002602001604051908101604052809291908181526020016000905b8282101561055f5760008481526020908190206040805160808101825260038602909201805483526001808201546001600160a01b03811685870152600160a01b900460ff1615159284019290925260020154606083015290835290920191016104fa565b505050509050919050565b600060015b6000548110156106d957600080828154811061058d5761058d611d56565b6000918252602082206006909102019150806105aa600185611d9b565b815481106105ba576105ba611d56565b600091825260208083206040805160e081018252600690940290910180548483019081526001820154606086015260028201546080860152600382015460a086015260048201546001600160a01b031660c086015284526005810180548351818602810186019094528084529196506106aa9493879385820193909291889084015b8282101561069d5760008481526020908190206040805160808101825260038602909201805460ff8116845261010090046001600160a01b03168385015260018082015492840192909252600201546060830152908352909201910161063c565b50505050815250506111e8565b600284015490915081146106c357600094505050505090565b50505080806106d190611d82565b91505061056f565b506001905090565b60008281526001602052604090206007015482906107115760405162461bcd60e51b815260040161032f90611dae565b600360ff831611156107565760405162461bcd60e51b815260206004820152600e60248201526d496e76616c69642073746174757360901b604482015260640161032f565b604080516080810182526002815233602082015260ff8416918101829052426060820152610783816112b7565b847fbfa7af1b5a224eb3545705f20cbe3655dc4708079b7bc4d959a809af1e43cae4858460016000805490506107b99190611d9b565b6040805160ff909416845260208401929092529082015260600160405180910390a25050505050565b600089815260016020526040902060070154156108415760405162461bcd60e51b815260206004820152601860248201527f436f6d706c61696e7420616c7265616479206578697374730000000000000000604482015260640161032f565b6040518061010001604052808a8152602001336001600160a01b0316815260200189898080601f016020809104026020016040519081016040528093929190818152602001838380828437600092019190915250505090825250604080516020601f8a0181900481028201810190925288815291810191908990899081908401838280828437600092019190915250505090825250602080820187905260408083018790528051601f86018390048302810183019091528481526060909201919085908590819084018382808284376000920182905250938552505042602093840152508b81526001808352604091829020845181559284015190830180546001600160a01b0319166001600160a01b03909216919091179055820151600282019061096d9082611e68565b50606082015160038201906109829082611e68565b506080820151600482015560a0820151600582015560c082015160068201906109ab9082611e68565b5060e08201518160070155905050600089338a8a8a8a8a8a8a8a426040516020016109e09b9a99989796959493929190611f28565b60408051601f1981840301815282825280516020918201206080840183526000845233918401919091529082018190524260608301529150610a21816112b7565b60005433908c907fc50bb021f90568553633c3ba3edcf7d4c404087e2fc5e263440c880ab73b70e4908590610a5890600190611d9b565b6040805192835260208301919091520160405180910390a35050505050505050505050565b6000828152600160205260409020600701548290610aad5760405162461bcd60e51b815260040161032f90611dae565b60008381526003602081815260408084208151608081018352888152338185018181528915158386019081524260608501818152865460018181018955978c52898c2096519a029095019889559151948801805491511515600160a01b026001600160a81b03199092166001600160a01b0396909616959095171790935590516002909501949094559051610b779388939092889290910193845260609290921b6bffffffffffffffffffffffff19166020840152151560f81b6034830152603582015260550190565b60408051601f1981840301815282825280516020918201206080840183526003845233918401919091529082018190524260608301529150610bb8816112b7565b336001600160a01b0316857fc429218cf58493a20e855bb681417416f32967134a6b4e280ec42144870dbd2286856001600080549050610bf89190611d9b565b60408051931515845260208401929092529082015260600160405180910390a35050505050565b606060026000838152602001908152602001600020805480602002602001604051908101604052809291908181526020016000905b8282101561055f57600084815260209081902060408051608081018252600486029092018054835260018101546001600160a01b03169383019390935260028301805492939291840191610ca790611de5565b80601f0160208091040260200160405190810160405280929190818152602001828054610cd390611de5565b8015610d205780601f10610cf557610100808354040283529160200191610d20565b820191906000526020600020905b815481529060010190602001808311610d0357829003601f168201915b5050505050815260200160038201548152505081526020019060010190610c54565b60016020819052600091825260409091208054918101546002820180546001600160a01b039092169291610d7590611de5565b80601f0160208091040260200160405190810160405280929190818152602001828054610da190611de5565b8015610dee5780601f10610dc357610100808354040283529160200191610dee565b820191906000526020600020905b815481529060010190602001808311610dd157829003601f168201915b505050505090806003018054610e0390611de5565b80601f0160208091040260200160405190810160405280929190818152602001828054610e2f90611de5565b8015610e7c5780601f10610e5157610100808354040283529160200191610e7c565b820191906000526020600020905b815481529060010190602001808311610e5f57829003601f168201915b505050505090806004015490806005015490806006018054610e9d90611de5565b80601f0160208091040260200160405190810160405280929190818152602001828054610ec990611de5565b8015610f165780601f10610eeb57610100808354040283529160200191610f16565b820191906000526020600020905b815481529060010190602001808311610ef957829003601f168201915b5050505050908060070154905088565b6000818152600160205260408120600701548290610f565760405162461bcd60e51b815260040161032f90611dae565b600080548190610f6890600190611d9b565b90505b8015611025576000808281548110610f8557610f85611d56565b9060005260206000209060060201905060005b6005820154811015611010576000826005018281548110610fbb57610fbb611d56565b60009182526020909120600390910201805490915060ff1660011901610ffd57600181015460ff811660038111610ffa57975061102995505050505050565b50505b508061100881611d82565b915050610f98565b5050808061101d90611f91565b915050610f6b565b5091505b50919050565b600083815260016020526040902060070154839061105f5760405162461bcd60e51b815260040161032f90611dae565b600260008581526020019081526020016000206040518060800160405280868152602001336001600160a01b0316815260200185858080601f0160208091040260200160405190810160405280939291908181526020018383808284376000920182905250938552505042602093840152508354600180820186559482529082902083516004909202019081559082015192810180546001600160a01b0319166001600160a01b0390941693909317909255604081015190919060028201906111289082611e68565b5060608201518160030155505060008433858542604051602001611150959493929190611fa8565b60408051601f1981840301815282825280516020918201206080840183526001845233918401919091529082018190524260608301529150611191816112b7565b600054339087907f39191777cabd45e939e68eff366eccef25b8d14c91fbc12c94c0b7b02f5babfa9085906111c890600190611d9b565b6040805192835260208301919091520160405180910390a3505050505050565b518051602080830151604080850151606080870151608097880151845180880198909852878501959095528682019290925295850152931b6bffffffffffffffffffffffff191660a08301528251808303609401815260b4909201909252805191012090565b6000818154811061125e57600080fd5b60009182526020918290206040805160a081018252600690930290910180548352600181015493830193909352600283015490820152600382015460608201526004909101546001600160a01b03166080820152905081565b6000805490806112c8600184611d9b565b815481106112d8576112d8611d56565b9060005260206000209060060201905060008360000151846020015185604001518660600151604051602001611335949392919060ff9490941684526001600160a01b039290921660208401526040830152606082015260800190565b60408051808303601f19018152828252805160209182012060a080850184528785524283860152835160e0810185528754818601908152600189015460608301526002890154608083015260038901549282019290925260048801546001600160a01b031660c0820152908152600587018054855181860281018601875281815293975060009695860194611432948a938583019391929091908a908401821561069d5760008481526020908190206040805160808101825260038602909201805460ff8116845261010090046001600160a01b03168385015260018082015492840192909252600201546060830152908352909201910161063c565b81526020808201859052336040928301526000805460018082018355828052855160069092027f290decd9548b62a8d60345a988386fc84ba6bc95484008f6362f93160ef3e5638101928355868501517f290decd9548b62a8d60345a988386fc84ba6bc95484008f6362f93160ef3e564820155868601517f290decd9548b62a8d60345a988386fc84ba6bc95484008f6362f93160ef3e5658201556060808801517f290decd9548b62a8d60345a988386fc84ba6bc95484008f6362f93160ef3e56683015560808801517f290decd9548b62a8d60345a988386fc84ba6bc95484008f6362f93160ef3e567830180546001600160a01b039283166001600160a01b03199091161790557f290decd9548b62a8d60345a988386fc84ba6bc95484008f6362f93160ef3e568909201805480850182559086528686208e5160039092020180548f890151909416610100026001600160a81b031990941660ff909216919091179290921782558c870151828401558c015160029091015584518086018652868152855182815280870190965295965090949193919283810192919082015b6040805160808101825260008082526020808301829052928201819052606082015282526000199092019101816115d557905050815250905086816020015160008151811061162657611626611d56565b6020026020010181905250857f550c15d59a80a1ae351b80766cce26e5621bf8695277749182506040eee374aa61165c836111e8565b6040805191825233602083015260019082015260600160405180910390a250505050505050565b60006020828403121561169557600080fd5b5035919050565b825181526020808401519082015260408084015190820152606080840151908201526080808401516001600160a01b031690820152600060c0820160c060a084015283519081905260209060e084019082860160005b8281101561173a578151805160ff168552858101516001600160a01b0316868601526040808201519086015260609081015190850152608090930192908401906001016116f2565b5091979650505050505050565b602080825282518282018190526000919060409081850190868401855b8281101561173a57815180518552868101516001600160a01b031687860152858101511515868601526060908101519085015260809093019290850190600101611764565b803560ff811681146117ba57600080fd5b919050565b600080604083850312156117d257600080fd5b823591506117e2602084016117a9565b90509250929050565b60008083601f8401126117fd57600080fd5b50813567ffffffffffffffff81111561181557600080fd5b60208301915083602082850101111561182d57600080fd5b9250929050565b600080600080600080600080600060c08a8c03121561185257600080fd5b8935985060208a013567ffffffffffffffff8082111561187157600080fd5b61187d8d838e016117eb565b909a50985060408c013591508082111561189657600080fd5b6118a28d838e016117eb565b909850965060608c0135955060808c0135945060a08c01359150808211156118c957600080fd5b506118d68c828d016117eb565b915080935050809150509295985092959850929598565b6000806040838503121561190057600080fd5b823591506020830135801515811461191757600080fd5b809150509250929050565b6000815180845260005b818110156119485760208185018101518683018201520161192c565b506000602082860101526020601f19601f83011685010191505092915050565b60006020808301818452808551808352604092508286019150828160051b87010184880160005b838110156119f157888303603f19018552815180518452878101516001600160a01b031688850152868101516080888601819052906119d082870182611922565b6060938401519690930195909552509487019492509086019060010161198f565b509098975050505050505050565b8881526001600160a01b038816602082015261010060408201819052600090611a2a8382018a611922565b90508281036060840152611a3e8189611922565b90508660808401528560a084015282810360c0840152611a5e8186611922565b9150508260e08301529998505050505050505050565b600080600060408486031215611a8957600080fd5b83359250602084013567ffffffffffffffff811115611aa757600080fd5b611ab3868287016117eb565b9497909650939450505050565b634e487b7160e01b600052604160045260246000fd5b6040516080810167ffffffffffffffff81118282101715611af957611af9611ac0565b60405290565b6040805190810167ffffffffffffffff81118282101715611af957611af9611ac0565b60405160a0810167ffffffffffffffff81118282101715611af957611af9611ac0565b604051601f8201601f1916810167ffffffffffffffff81118282101715611b6e57611b6e611ac0565b604052919050565b80356001600160a01b03811681146117ba57600080fd5b600082601f830112611b9e57600080fd5b8135602067ffffffffffffffff821115611bba57611bba611ac0565b611bc8818360051b01611b45565b82815260079290921b84018101918181019086841115611be757600080fd5b8286015b84811015611c485760808189031215611c045760008081fd5b611c0c611ad6565b611c15826117a9565b8152611c22858301611b76565b818601526040828101359082015260608083013590820152835291830191608001611beb565b509695505050505050565b600060208284031215611c6557600080fd5b813567ffffffffffffffff80821115611c7d57600080fd5b9083019081850360c0811215611c9257600080fd5b611c9a611aff565b60a0821215611ca857600080fd5b611cb0611b22565b915083358252602084013560208301526040840135604083015260608401356060830152611ce060808501611b76565b608083015290815260a08301359082821115611cfb57600080fd5b611d0787838601611b8d565b60208201529695505050505050565b815181526020808301519082015260408083015190820152606080830151908201526080808301516001600160a01b03169082015260a081015b92915050565b634e487b7160e01b600052603260045260246000fd5b634e487b7160e01b600052601160045260246000fd5b600060018201611d9457611d94611d6c565b5060010190565b81810381811115611d5057611d50611d6c565b60208082526018908201527f436f6d706c61696e7420646f6573206e6f742065786973740000000000000000604082015260600190565b600181811c90821680611df957607f821691505b60208210810361102957634e487b7160e01b600052602260045260246000fd5b601f821115611e6357600081815260208120601f850160051c81016020861015611e405750805b601f850160051c820191505b81811015611e5f57828155600101611e4c565b5050505b505050565b815167ffffffffffffffff811115611e8257611e82611ac0565b611e9681611e908454611de5565b84611e19565b602080601f831160018114611ecb5760008415611eb35750858301515b600019600386901b1c1916600185901b178555611e5f565b600085815260208120601f198616915b82811015611efa57888601518255948401946001909101908401611edb565b5085821015611f185787850151600019600388901b60f8161c191681555b5050505050600190811b01905550565b8b81526bffffffffffffffffffffffff198b60601b166020820152888a603483013760008982016034810160008152898b823750888101905087603482015286605482015284866074830137607494019384019290925250506094019998505050505050505050565b600081611fa057611fa0611d6c565b506000190190565b8581526bffffffffffffffffffffffff198560601b166020820152828460348301376034920191820152605401939250505056fea26469706673582212206266520b6479e09da270f094f10f46e24ab3085fd1e2aec17d845a31a13c7afb64736f6c63430008140033",
  "linkReferences": {},
  "deployedLinkReferences": {}
}