{
  "_format": "hh-sol-artifact-1",
  "contractName": "ComplaintRegistry",
  "sourceName": "contracts/ComplaintRegistry.sol",
  "abi": [
    {
      "anonymous": false,
      "inputs": [
        {
          "indexed": true,
          "internalType": "uint256",
          "name": "id",
          "type": "uint256"
        },
        {
          "indexed": true,
          "internalType": "address",
          "name": "commenter",
          "type": "address"
        },
        {
          "indexed": false,
          "internalType": "string",
          "name": "text",
          "type": "string"
        },
        {
          "indexed": false,
          "internalType": "uint256",
          "name": "timestamp",
          "type": "uint256"
        }
      ],
      "name": "CommentAdded",
      "type": "event"
    },
    {
      "anonymous": false,
      "inputs": [
        {
          "indexed": true,
          "internalType": "uint256",
          "name": "id",
          "type": "uint256"
        },
        {
          "indexed": true,
          "internalType": "address",
          "name": "reporter",
          "type": "address"
        },
        {
          "indexed": false,
          "internalType": "bytes32",
          "name": "dataHash",
          "type": "bytes32"
        },
        {
          "indexed": false,
          "internalType": "string",
          "name": "ipfsCid",
          "type": "string"
        },
        {
          "indexed": false,
          "internalType": "uint256",
          "name": "timestamp",
          "type": "uint256"
        }
      ],
      "name": "ComplaintRegistered",
      "type": "event"
    },
    {
      "anonymous": false,
      "inputs": [
        {
          "indexed": true,
          "internalType": "uint256",
          "name": "id",
          "type": "uint256"
        },
        {
          "indexed": true,
          "internalType": "address",
          "name": "liker",
          "type": "address"
        },
        {
          "indexed": false,
          "internalType": "uint256",
          "name": "newLikesCount",
          "type": "uint256"
        }
      ],
      "name": "Liked",
      "type": "event"
    },
    {
      "anonymous": false,
      "inputs": [
        {
          "indexed": true,
          "internalType": "uint256",
          "name": "id",
          "type": "uint256"
        },
        {
          "indexed": true,
          "internalType": "address",
          "name": "responder",
          "type": "address"
        },
        {
          "indexed": false,
          "internalType": "bytes32",
          "name": "dataHash",
          "type": "bytes32"
        },
        {
          "indexed": false,
          "internalType": "string",
          "name": "ipfsCid",
          "type": "string"
        },
        {
          "indexed": false,
          "internalType": "uint256",
          "name": "timestamp",
          "type": "uint256"
        }
      ],
      "name": "ResponseAdded",
      "type": "event"
    },
    {
      "anonymous": false,
      "inputs": [
        {
          "indexed": true,
          "internalType": "uint256",
          "name": "id",
          "type": "uint256"
        },
        {
          "indexed": false,
          "internalType": "enum ComplaintRegistry.Status",
          "name": "newStatus",
          "type": "uint8"
        }
      ],
      "name": "StatusUpdated",
      "type": "event"
    },
    {
      "inputs": [
        {
          "internalType": "uint256",
          "name": "_id",
          "type": "uint256"
        },
        {
          "internalType": "string",
          "name": "_text",
          "type": "string"
        }
      ],
      "name": "addComment",
      "outputs": [],
      "stateMutability": "nonpayable",
      "type": "function"
    },
    {
      "inputs": [
        {
          "internalType": "uint256",
          "name": "_id",
          "type": "uint256"
        },
        {
          "internalType": "string",
          "name": "_ipfsCid",
          "type": "string"
        },
        {
          "internalType": "bytes32",
          "name": "_dataHash",
          "type": "bytes32"
        },
        {
          "internalType": "string",
          "name": "_text",
          "type": "string"
        }
      ],
      "name": "addResponse",
      "outputs": [],
      "stateMutability": "nonpayable",
      "type": "function"
    },
    {
      "inputs": [
        {
          "internalType": "uint256",
          "name": "",
          "type": "uint256"
        },
        {
          "internalType": "uint256",
          "name": "",
          "type": "uint256"
        }
      ],
      "name": "comments",
      "outputs": [
        {
          "internalType": "address",
          "name": "commenter",
          "type": "address"
        },
        {
          "internalType": "string",
          "name": "text",
          "type": "string"
        },
        {
          "internalType": "uint256",
          "name": "timestamp",
          "type": "uint256"
        }
      ],
      "stateMutability": "view",
      "type": "function"
    },
    {
      "inputs": [
        {
          "internalType": "uint256",
          "name": "",
          "type": "uint256"
        }
      ],
      "name": "complaints",
      "outputs": [
        {
          "internalType": "uint256",
          "name": "id",
          "type": "uint256"
        },
        {
          "internalType": "address",
          "name": "reporter",
          "type": "address"
        },
        {
          "internalType": "string",
          "name": "ipfsCid",
          "type": "string"
        },
        {
          "internalType": "bytes32",
          "name": "dataHash",
          "type": "bytes32"
        },
        {
          "internalType": "string",
          "name": "reason",
          "type": "string"
        },
        {
          "internalType": "string",
          "name": "description",
          "type": "string"
        },
        {
          "internalType": "string",
          "name": "locationName",
          "type": "string"
        },
        {
          "internalType": "int256",
          "name": "lat",
          "type": "int256"
        },
        {
          "internalType": "int256",
          "name": "lng",
          "type": "int256"
        },
        {
          "internalType": "enum ComplaintRegistry.Status",
          "name": "status",
          "type": "uint8"
        },
        {
          "internalType": "uint256",
          "name": "timestamp",
          "type": "uint256"
        },
        {
          "internalType": "uint256",
          "name": "likesCount",
          "type": "uint256"
        }
      ],
      "stateMutability": "view",
      "type": "function"
    },
    {
      "inputs": [
        {
          "internalType": "uint256",
          "name": "_id",
          "type": "uint256"
        }
      ],
      "name": "getComments",
      "outputs": [
        {
          "components": [
            {
              "internalType": "address",
              "name": "commenter",
              "type": "address"
            },
            {
              "internalType": "string",
              "name": "text",
              "type": "string"
            },
            {
              "internalType": "uint256",
              "name": "timestamp",
              "type": "uint256"
            }
          ],
          "internalType": "struct ComplaintRegistry.Comment[]",
          "name": "",
          "type": "tuple[]"
        }
      ],
      "stateMutability": "view",
      "type": "function"
    },
    {
      "inputs": [
        {
          "internalType": "uint256",
          "name": "_id",
          "type": "uint256"
        }
      ],
      "name": "getComplaint",
      "outputs": [
        {
          "components": [
            {
              "internalType": "uint256",
              "name": "id",
              "type": "uint256"
            },
            {
              "internalType": "address",
              "name": "reporter",
              "type": "address"
            },
            {
              "internalType": "string",
              "name": "ipfsCid",
              "type": "string"
            },
            {
              "internalType": "bytes32",
              "name": "dataHash",
              "type": "bytes32"
            },
            {
              "internalType": "string",
              "name": "reason",
              "type": "string"
            },
            {
              "internalType": "string",
              "name": "description",
              "type": "string"
            },
            {
              "internalType": "string",
              "name": "locationName",
              "type": "string"
            },
            {
              "internalType": "int256",
              "name": "lat",
              "type": "int256"
            },
            {
              "internalType": "int256",
              "name": "lng",
              "type": "int256"
            },
            {
              "internalType": "enum ComplaintRegistry.Status",
              "name": "status",
              "type": "uint8"
            },
            {
              "internalType": "uint256",
              "name": "timestamp",
              "type": "uint256"
            },
            {
              "internalType": "uint256",
              "name": "likesCount",
              "type": "uint256"
            }
          ],
          "internalType": "struct ComplaintRegistry.Complaint",
          "name": "",
          "type": "tuple"
        }
      ],
      "stateMutability": "view",
      "type": "function"
    },
    {
      "inputs": [
        {
          "internalType": "uint256",
          "name": "_id",
          "type": "uint256"
        }
      ],
      "name": "getResponses",
      "outputs": [
        {
          "components": [
            {
              "internalType": "uint256",
              "name": "complaintId",
              "type": "uint256"
            },
            {
              "internalType": "address",
              "name": "responder",
              "type": "address"
            },
            {
              "internalType": "string",
              "name": "ipfsCid",
              "type": "string"
            },
            {
              "internalType": "bytes32",
              "name": "dataHash",
              "type": "bytes32"
            },
            {
              "internalType": "string",
              "name": "text",
              "type": "string"
            },
            {
              "internalType": "uint256",
              "name": "timestamp",
              "type": "uint256"
            }
          ],
          "internalType": "struct ComplaintRegistry.Response[]",
          "name": "",
          "type": "tuple[]"
        }
      ],
      "stateMutability": "view",
      "type": "function"
    },
    {
      "inputs": [
        {
          "internalType": "uint256",
          "name": "_id",
          "type": "uint256"
        }
      ],
      "name": "like",
      "outputs": [],
      "stateMutability": "nonpayable",
      "type": "function"
    },
    {
      "inputs": [
        {
          "internalType": "uint256",
          "name": "_id",
          "type": "uint256"
        },
        {
          "internalType": "string",
          "name": "_ipfsCid",
          "type": "string"
        },
        {
          "internalType": "bytes32",
          "name": "_dataHash",
          "type": "bytes32"
        },
        {
          "internalType": "string",
          "name": "_reason",
          "type": "string"
        },
        {
          "internalType": "string",
          "name": "_description",
          "type": "string"
        },
        {
          "internalType": "string",
          "name": "_locationName",
          "type": "string"
        },
        {
          "internalType": "int256",
          "name": "_lat",
          "type": "int256"
        },
        {
          "internalType": "int256",
          "name": "_lng",
          "type": "int256"
        }
      ],
      "name": "registerComplaint",
      "outputs": [],
      "stateMutability": "nonpayable",
      "type": "function"
    },
    {
      "inputs": [
        {
          "internalType": "uint256",
          "name": "",
          "type": "uint256"
        },
        {
          "internalType": "uint256",
          "name": "",
          "type": "uint256"
        }
      ],
      "name": "responses",
      "outputs": [
        {
          "internalType": "uint256",
          "name": "complaintId",
          "type": "uint256"
        },
        {
          "internalType": "address",
          "name": "responder",
          "type": "address"
        },
        {
          "internalType": "string",
          "name": "ipfsCid",
          "type": "string"
        },
        {
          "internalType": "bytes32",
          "name": "dataHash",
          "type": "bytes32"
        },
        {
          "internalType": "string",
          "name": "text",
          "type": "string"
        },
        {
          "internalType": "uint256",
          "name": "timestamp",
          "type": "uint256"
        }
      ],
      "stateMutability": "view",
      "type": "function"
    },
    {
      "inputs": [
        {
          "internalType": "uint256",
          "name": "_id",
          "type": "uint256"
        },
        {
          "internalType": "enum ComplaintRegistry.Status",
          "name": "_newStatus",
          "type": "uint8"
        }
      ],
      "name": "updateStatus",
      "outputs": [],
      "stateMutability": "nonpayable",
      "type": "function"
    }
  ],
  "bytecode": "0x608060405234801561001057600080fd5b50611d70806100206000396000f3fe608060405234801561001057600080fd5b50600436106100a85760003560e01c8063aa7e568311610071578063aa7e56831461015b578063cfc4fc841461016e578063dee8ae4314610181578063e82935da146101a1578063fc6c776f146101b4578063fe115af7146101d657600080fd5b806257efc2146100ad57806323edf697146100db5780633a1b3d31146100fb57806371ee2ce1146101105780637e69e91214610130575b600080fd5b6100c06100bb366004611493565b6101e9565b6040516100d2969594939291906114fb565b60405180910390f35b6100ee6100e9366004611551565b610359565b6040516100d2919061156a565b61010e6101093660046115f6565b6104ac565b005b61012361011e366004611551565b61054b565b6040516100d2919061162a565b61014361013e366004611551565b610730565b6040516100d29c9b9a99989796959493929190611711565b61010e610169366004611801565b6109b7565b61010e61017c36600461184d565b610af6565b61019461018f366004611551565b610dc5565b6040516100d29190611953565b61010e6101af366004611551565b6110e9565b6101c76101c2366004611493565b61118b565b6040516100d293929190611a4a565b61010e6101e4366004611a7e565b611261565b6001602052816000526040600020818154811061020557600080fd5b60009182526020909120600690910201805460018201546002830180549295506001600160a01b0390911693509061023c90611b01565b80601f016020809104026020016040519081016040528092919081815260200182805461026890611b01565b80156102b55780601f1061028a576101008083540402835291602001916102b5565b820191906000526020600020905b81548152906001019060200180831161029857829003601f168201915b5050505050908060030154908060040180546102d090611b01565b80601f01602080910402602001604051908101604052809291908181526020018280546102fc90611b01565b80156103495780601f1061031e57610100808354040283529160200191610349565b820191906000526020600020905b81548152906001019060200180831161032c57829003601f168201915b5050505050908060050154905086565b6000818152602081905260408120600a0154606091036103945760405162461bcd60e51b815260040161038b90611b3b565b60405180910390fd5b600082815260026020908152604080832080548251818502810185019093528083529193909284015b828210156104a157600084815260209081902060408051606081019091526003850290910180546001600160a01b03168252600181018054929391929184019161040690611b01565b80601f016020809104026020016040519081016040528092919081815260200182805461043290611b01565b801561047f5780601f106104545761010080835404028352916020019161047f565b820191906000526020600020905b81548152906001019060200180831161046257829003601f168201915b50505050508152602001600282015481525050815260200190600101906103bd565b505050509050919050565b6000828152602081905260408120600a015490036104dc5760405162461bcd60e51b815260040161038b90611b3b565b6000828152602081905260409020600901805482919060ff1916600183600281111561050a5761050a6116d9565b0217905550817f2da7b23ca63c1eb969eee5fae4acb98186abecf5358b0354a82a5183ebca6b2a8260405161053f9190611b68565b60405180910390a25050565b6000818152602081905260408120600a01546060910361057d5760405162461bcd60e51b815260040161038b90611b3b565b600082815260016020908152604080832080548251818502810185019093528083529193909284015b828210156104a15760008481526020908190206040805160c081018252600686029092018054835260018101546001600160a01b031693830193909352600283018054929392918401916105f990611b01565b80601f016020809104026020016040519081016040528092919081815260200182805461062590611b01565b80156106725780601f1061064757610100808354040283529160200191610672565b820191906000526020600020905b81548152906001019060200180831161065557829003601f168201915b505050505081526020016003820154815260200160048201805461069590611b01565b80601f01602080910402602001604051908101604052809291908181526020018280546106c190611b01565b801561070e5780601f106106e35761010080835404028352916020019161070e565b820191906000526020600020905b8154815290600101906020018083116106f157829003601f168201915b50505050508152602001600582015481525050815260200190600101906105a6565b60006020819052908152604090208054600182015460028301805492936001600160a01b039092169261076290611b01565b80601f016020809104026020016040519081016040528092919081815260200182805461078e90611b01565b80156107db5780601f106107b0576101008083540402835291602001916107db565b820191906000526020600020905b8154815290600101906020018083116107be57829003601f168201915b5050505050908060030154908060040180546107f690611b01565b80601f016020809104026020016040519081016040528092919081815260200182805461082290611b01565b801561086f5780601f106108445761010080835404028352916020019161086f565b820191906000526020600020905b81548152906001019060200180831161085257829003601f168201915b50505050509080600501805461088490611b01565b80601f01602080910402602001604051908101604052809291908181526020018280546108b090611b01565b80156108fd5780601f106108d2576101008083540402835291602001916108fd565b820191906000526020600020905b8154815290600101906020018083116108e057829003601f168201915b50505050509080600601805461091290611b01565b80601f016020809104026020016040519081016040528092919081815260200182805461093e90611b01565b801561098b5780601f106109605761010080835404028352916020019161098b565b820191906000526020600020905b81548152906001019060200180831161096e57829003601f168201915b505050600784015460088501546009860154600a870154600b909701549596929591945060ff1692508c565b6000838152602081905260408120600a015490036109e75760405162461bcd60e51b815260040161038b90611b3b565b600260008481526020019081526020016000206040518060600160405280336001600160a01b0316815260200184848080601f01602080910402602001604051908101604052809392919081815260200183838082843760009201829052509385525050426020938401525083546001808201865594825290829020835160039092020180546001600160a01b0319166001600160a01b03909216919091178155908201519192909190820190610a9e9082611be1565b50604082015181600201555050336001600160a01b0316837fceaa40d9d02173d6fae1f576cc1baff7cec35a842086153314079c405401a988848442604051610ae993929190611cca565b60405180910390a3505050565b60008c8152602081905260409020600a015415610b555760405162461bcd60e51b815260206004820152601860248201527f436f6d706c61696e7420616c7265616479206578697374730000000000000000604482015260640161038b565b6040518061018001604052808d8152602001336001600160a01b031681526020018c8c8080601f01602080910402602001604051908101604052809392919081815260200183838082843760009201919091525050509082525060208082018c905260408051601f8c0183900483028101830182528b8152920191908b908b9081908401838280828437600092019190915250505090825250604080516020601f8a0181900481028201810190925288815291810191908990899081908401838280828437600092019190915250505090825250604080516020601f8801819004810282018101909252868152918101919087908790819084018382808284376000920182905250938552505050602080830186905260408084018690526060840183905242608085015260a09093018290528f82528181529082902083518155908301516001820180546001600160a01b0319166001600160a01b03909216919091179055908201516002820190610cce9082611be1565b506060820151600382015560808201516004820190610ced9082611be1565b5060a08201516005820190610d029082611be1565b5060c08201516006820190610d179082611be1565b5060e08201516007820155610100820151600882015561012082015160098201805460ff19166001836002811115610d5157610d516116d9565b021790555061014082015181600a015561016082015181600b0155905050336001600160a01b03168c7fcac61bbc5208514e436bc87fbdf6eebbb2d4a85be06011e574ac321c0d6792eb8b8e8e42604051610daf9493929190611cee565b60405180910390a3505050505050505050505050565b610dcd611415565b6000828152602081905260408120600a01549003610dfd5760405162461bcd60e51b815260040161038b90611b3b565b600082815260208181526040918290208251610180810184528154815260018201546001600160a01b0316928101929092526002810180549293919291840191610e4690611b01565b80601f0160208091040260200160405190810160405280929190818152602001828054610e7290611b01565b8015610ebf5780601f10610e9457610100808354040283529160200191610ebf565b820191906000526020600020905b815481529060010190602001808311610ea257829003601f168201915b5050505050815260200160038201548152602001600482018054610ee290611b01565b80601f0160208091040260200160405190810160405280929190818152602001828054610f0e90611b01565b8015610f5b5780601f10610f3057610100808354040283529160200191610f5b565b820191906000526020600020905b815481529060010190602001808311610f3e57829003601f168201915b50505050508152602001600582018054610f7490611b01565b80601f0160208091040260200160405190810160405280929190818152602001828054610fa090611b01565b8015610fed5780601f10610fc257610100808354040283529160200191610fed565b820191906000526020600020905b815481529060010190602001808311610fd057829003601f168201915b5050505050815260200160068201805461100690611b01565b80601f016020809104026020016040519081016040528092919081815260200182805461103290611b01565b801561107f5780601f106110545761010080835404028352916020019161107f565b820191906000526020600020905b81548152906001019060200180831161106257829003601f168201915b50505091835250506007820154602082015260088201546040820152600982015460609091019060ff1660028111156110ba576110ba6116d9565b60028111156110cb576110cb6116d9565b8152600a8201546020820152600b9091015460409091015292915050565b6000818152602081905260408120600a015490036111195760405162461bcd60e51b815260040161038b90611b3b565b6000818152602081905260408120600b0180546001929061113b908490611d19565b909155505060008181526020818152604091829020600b01549151918252339183917f7d5458e61bf2bf76987ce638f841daaa06b8829aae898a0eb343f41e38aa082f910160405180910390a350565b600260205281600052604060002081815481106111a757600080fd5b6000918252602090912060039091020180546001820180546001600160a01b0390921694509192506111d890611b01565b80601f016020809104026020016040519081016040528092919081815260200182805461120490611b01565b80156112515780601f1061122657610100808354040283529160200191611251565b820191906000526020600020905b81548152906001019060200180831161123457829003601f168201915b5050505050908060020154905083565b6000868152602081905260408120600a015490036112915760405162461bcd60e51b815260040161038b90611b3b565b600160008781526020019081526020016000206040518060c00160405280888152602001336001600160a01b0316815260200187878080601f016020809104026020016040519081016040528093929190818152602001838380828437600092019190915250505090825250602080820187905260408051601f870183900483028101830182528681529201919086908690819084018382808284376000920182905250938552505042602093840152508354600180820186559482529082902083516006909202019081559082015192810180546001600160a01b0319166001600160a01b0390941693909317909255604081015190919060028201906113999082611be1565b5060608201516003820155608082015160048201906113b89082611be1565b5060a082015181600501555050336001600160a01b0316867fc7d0fb64506d9772db24db7018e74f0cb4720cbc001baf19d64383ecaf413866858888426040516114059493929190611cee565b60405180910390a3505050505050565b6040518061018001604052806000815260200160006001600160a01b03168152602001606081526020016000801916815260200160608152602001606081526020016060815260200160008152602001600081526020016000600281111561147f5761147f6116d9565b815260200160008152602001600081525090565b600080604083850312156114a657600080fd5b50508035926020909101359150565b6000815180845260005b818110156114db576020818501810151868301820152016114bf565b506000602082860101526020601f19601f83011685010191505092915050565b8681526001600160a01b038616602082015260c060408201819052600090611525908301876114b5565b856060840152828103608084015261153d81866114b5565b9150508260a0830152979650505050505050565b60006020828403121561156357600080fd5b5035919050565b60006020808301818452808551808352604092508286019150828160051b87010184880160005b838110156115e857888303603f19018552815180516001600160a01b03168452878101516060898601819052906115ca828701826114b5565b92890151958901959095525094870194925090860190600101611591565b509098975050505050505050565b6000806040838503121561160957600080fd5b8235915060208301356003811061161f57600080fd5b809150509250929050565b60006020808301818452808551808352604092508286019150828160051b87010184880160005b838110156115e857888303603f19018552815180518452878101516001600160a01b0316888501528681015160c088860181905290611692828701826114b5565b9150506060808301518187015250608080830151868303828801526116b783826114b5565b60a0948501519790940196909652505094870194925090860190600101611651565b634e487b7160e01b600052602160045260246000fd5b6003811061170d57634e487b7160e01b600052602160045260246000fd5b9052565b8c81526001600160a01b038c1660208201526101806040820181905260009061173c8382018e6114b5565b90508b60608401528281036080840152611756818c6114b5565b905082810360a084015261176a818b6114b5565b905082810360c084015261177e818a6114b5565b9150508660e08301528561010083015261179c6101208301866116ef565b61014082019390935261016001529a9950505050505050505050565b60008083601f8401126117ca57600080fd5b50813567ffffffffffffffff8111156117e257600080fd5b6020830191508360208285010111156117fa57600080fd5b9250929050565b60008060006040848603121561181657600080fd5b83359250602084013567ffffffffffffffff81111561183457600080fd5b611840868287016117b8565b9497909650939450505050565b6000806000806000806000806000806000806101008d8f03121561187057600080fd5b8c359b5067ffffffffffffffff60208e0135111561188d57600080fd5b61189d8e60208f01358f016117b8565b909b50995060408d0135985067ffffffffffffffff60608e013511156118c257600080fd5b6118d28e60608f01358f016117b8565b909850965067ffffffffffffffff60808e013511156118f057600080fd5b6119008e60808f01358f016117b8565b909650945067ffffffffffffffff60a08e0135111561191e57600080fd5b61192e8e60a08f01358f016117b8565b9c9f9b9e50999c989b979a969995989497959660c08601359560e00135945092505050565b60208152815160208201526000602083015161197a60408401826001600160a01b03169052565b5060408301516101808060608501526119976101a08501836114b5565b9150606085015160808501526080850151601f19808685030160a08701526119bf84836114b5565b935060a08701519150808685030160c08701526119dc84836114b5565b935060c08701519150808685030160e0870152506119fa83826114b5565b60e087015161010087810191909152870151610120808801919091528701519093509050610140611a2d818701836116ef565b860151610160868101919091529095015193019290925250919050565b6001600160a01b0384168152606060208201819052600090611a6e908301856114b5565b9050826040830152949350505050565b60008060008060008060808789031215611a9757600080fd5b86359550602087013567ffffffffffffffff80821115611ab657600080fd5b611ac28a838b016117b8565b9097509550604089013594506060890135915080821115611ae257600080fd5b50611aef89828a016117b8565b979a9699509497509295939492505050565b600181811c90821680611b1557607f821691505b602082108103611b3557634e487b7160e01b600052602260045260246000fd5b50919050565b60208082526013908201527210dbdb5c1b185a5b9d081b9bdd08199bdd5b99606a1b604082015260600190565b60208101611b7682846116ef565b92915050565b634e487b7160e01b600052604160045260246000fd5b601f821115611bdc57600081815260208120601f850160051c81016020861015611bb95750805b601f850160051c820191505b81811015611bd857828155600101611bc5565b5050505b505050565b815167ffffffffffffffff811115611bfb57611bfb611b7c565b611c0f81611c098454611b01565b84611b92565b602080601f831160018114611c445760008415611c2c5750858301515b600019600386901b1c1916600185901b178555611bd8565b600085815260208120601f198616915b82811015611c7357888601518255948401946001909101908401611c54565b5085821015611c915787850151600019600388901b60f8161c191681555b5050505050600190811b01905550565b81835281816020850137506000828201602090810191909152601f909101601f19169091010190565b604081526000611cde604083018587611ca1565b9050826020830152949350505050565b848152606060208201526000611d08606083018587611ca1565b905082604083015295945050505050565b80820180821115611b7657634e487b7160e01b600052601160045260246000fdfea26469706673582212200b3908191726d28441a7a0d7515d5927b0714f285cdbe8fb0740dc3beeb7000964736f6c63430008140033",
  "linkReferences": {},
  "deployedLinkReferences": {}
}